:020000040800F2
:10000000100400209D010008AB0D0008CD0C000875
:10001000A90D000809020008D10E00080000000028
:100020000000000000000000000000002D0E00088D
:100030000B02000800000000AD0D00082F0E0008A4
:10004000B7010008B7010008B7010008B7010008B0
:10005000B7010008B7010008B7010008B7010008A0
:10006000B7010008B7010008B7010008B701000890
:10007000B7010008B7010008B7010008B701000880
:10008000B7010008B7010008B7010008B701000870
:10009000B7010008B7010008B701000823020008F3
:1000A000B7010008B7010008B7010008B701000850
:1000B000B7010008B7010008B7010008B701000840
:1000C000B7010008B7010008B7010008B701000830
:1000D000B7010008B7010008B7010008B701000820
:1000E0000D020008B7010008B7010008B7010008B9
:1000F000B7010008B7010008B7010008B701000800
:10010000B7010008B7010008B7010008B7010008EF
:10011000B7010008B7010008B7010008B7010008DF
:10012000B7010008B7010008B7010008B7010008CF
:10013000B7010008B7010008B7010008B7010008BF
:10014000B7010008B7010008B7010008B7010008AF
:10015000B7010008B7010008B7010008B70100089F
:10016000B7010008B7010008B7010008B70100088F
:10017000B7010008B70100080000000000000000FF
:10018000B7010008B7010008DFF80CD000F02AF82A
:1001900000480047110F000810040020064880475F
:1001A00006480047FEE7FEE7FEE7FEE7FEE7FEE75C
:1001B000FEE7FEE7FEE7FEE78D0E00088901000876
:1001C000D2B201E000F8012B491EFBD27047002299
:1001D000F6E710B513460A4604461946FFF7F0FF46
:1001E000204610BD064C074D06E0E06840F00103D4
:1001F00094E8070098471034AC42F6D3FFF7C8FFE5
:100200007C0F00089C0F0008FEE7704710B54FF404
:10021000806000F025F8BDE810404FF4005000F079
:100220001FB810B54FF4807000F01AF8BDE8104008
:100230004FF4007000F014B870B5044600F00EF9E9
:100240000546601C02D004484068044400F006F9EA
:10025000401BA042FAD370BD000000207047000090
:10026000044910B50A68024202D00860FFF7F6FFA1
:1002700010BD0000140401402DE9F84FDFF898B1DB
:1002800000234FF0010C4FF0030A4FF00F090BF160
:10029000040EB9E00CFA03F4224070D04D68022D30
:1002A00001D0122D0ED1DD0800EB8508D8F82050C2
:1002B0005E07F70E09FA07F6B5430E69BE402E43F6
:1002C000C8F8206007685E0091F804800AFA06F515
:1002D00008F00308AF4308FA06F848EA0708C0F830
:1002E00000804F68012F05D0022F03D0112F01D0BD
:1002F000122F13D1D0F80880CF6828EA0508B7403C
:1003000047EA08078760D0F804800F7928EA0408D4
:10031000C7F300179F4047EA08074760D1F80480F9
:100320006FEA0807BF0706D1C76AA743C8F3C0042E
:100330009C403C43C462C468AC438D68B5402543CF
:10034000C5604C68E4005ED5344C256E45F001056F
:100350002566246E23F0030504F001040094304C5C
:100360002E19B4689D072F0F09FA07F5AC43B0F1B9
:10037000904F05D02B4DA84204D101251CE042E04E
:10038000002519E0284DA84201D1022514E0274D8F
:10039000A84201D103250FE0254DA84201D1042533
:1003A0000AE0244DA84201D1052505E0224DA842CE
:1003B00001D1062500E00725BD402543B560DBF8E7
:1003C00000405D464E689443F60300D514432C600C
:1003D000DEF8004075464E689443B60300D51443DA
:1003E0002C600D4D08352C684E689443F60200D5FC
:1003F00014432C60084D0C352C684E689443B602AB
:1004000000D514432C605B1C0A6832FA03F57FF4B4
:1004100041AF00F013B8000000040140001002409A
:10042000000001400004004800080048000C00489B
:1004300000100048001400480018004818BCBDE82F
:10044000E08F42690A4201D0816270478161704742
:100450000AB181617047816270470000014880687D
:100460007047000000000020024881684268114483
:10047000816070470000002010B50024032000F0C8
:1004800071F8002000F008F808B1012401E000F044
:1004900025F8204610BD000070B50E4E054600241C
:1004A000706898B14FF47A71B1FBF0F00A490968AD
:1004B000B1FBF0F000F0F6FB40B9102D06D200229F
:1004C0002946501E00F02EF8356000E00124204639
:1004D00070BD0000000000200C000020094808B595
:1004E000016E41F001010166016E01F00101009110
:1004F000816D41F080518165806D00F080500090E9
:1005000008BD000000100240002809DB00F01F02B7
:10051000012191404009800000F1E020C0F8001165
:1005200070470000F0B40E4B1B680C46C3F3022367
:10053000C3F10705042D00D90425191D072901D28F
:10054000002300E0DB1E012606FA05F1491E2140CA
:1005500099409E40761E16403143F0BC00F0B9BC75
:100560000CED00E0064900F0070208684FF6FF03B3
:10057000184040EA0220034A104308607047000018
:100580000CED00E00000FA051649B0F5007F0868A0
:10059000C0F3412009D0022805D0086820F4C060CB
:1005A00040F480600860002070470128FBD0086894
:1005B00020F4C06040F4007008600B4832220068EC
:1005C00050430A4AB0FBF2F0401C00E0401E4A696A
:1005D000520501D50028F9D148694005E3D503202B
:1005E00070470000007000400C00002040420F00E7
:1005F0000248006800F4C0607047000000700040CE
:100600002DE9F0470F46050058D0404E306800F005
:100610000700B84209D2306820F007003843306044
:10062000306800F00700B84248D12878384CC0073D
:100630002CD06868032811D0022812D0216898B104
:10064000490500293ADAA16821F003010143A160BC
:10065000FFF704FF804641F2883910E021688901E4
:10066000EFE721688903ECE78907EAE7FFF7F6FE81
:10067000A0EB0801494502D90320BDE8F087A06836
:10068000696800F00C00B0EB810FEFD1287880078B
:1006900005D5A068A96820F0F0000843A060306884
:1006A00000F00700B8420BD9306820F0070038434B
:1006B0003060306800F00700B84201D00120DCE76C
:1006C0002878400705D5A068E96820F4E060084371
:1006D000A0602878000706D5A068296920F460503A
:1006E00040EAC100A06000F01BF8A168094AC1F30C
:1006F0000311515C01F01F01C84007490860074819
:100700000068BDE8F047FFF7C7BE000000200240C8
:10071000001002403C0F00080C00002000000020E8
:1007200070B52549002318468A68CC6812F00C027F
:1007300004F00306214C4FEA640509D00C2A05D0C9
:10074000042A32D0082A00D1284670BD012E10D1CB
:100750000B681B0704D4D1F89430C3F3032302E0E1
:100760000B68C3F30313164E56F82330DAB10C2A84
:10077000EBD1C86800F00300022818D0032818D075
:100780001846CA68CB68C2F30212C3F30623434378
:10079000521CB3FBF2F2C868C0F34160401C400039
:1007A000B2FBF0F070BD184670BD204670BD20460B
:1007B000E7E72846E5E70000001002400024F400C7
:1007C0004C0F00082DE9F84304006ED0FD4DA868D9
:1007D00000F00C06E86800F003072078C00663D537
:1007E00076B10C2E01D1012F0AD0A069002828680B
:1007F00078D040F001002860FFF730FE80465BE0D3
:100800002868800702D5A0690028DED0216A286800
:10081000000703D5286800F0F00004E0D5F8940044
:10082000F02202EA1010814216D9084600F0C0FA00
:1008300000283AD1286840F0080028602868216A1A
:1008400020F0F000084328606868E16920F47F40E8
:1008500040EA0120686015E0286840F00800286040
:100860002868216A20F0F000084328606868E16980
:1008700020F47F4040EA01206860206A00F098FA86
:100880000028D6D1FFF74CFFA968CF4AC1F3031166
:10089000515C01F01F01C840CC490860CC48006899
:1008A000FFF7FAFD00287DD12DE0C9E0FFF7D6FD66
:1008B000A0EB0800022876D828688007F6D52868BB
:1008C00040F0080028602868216A20F0F000084302
:1008D00028606868E16920F47F4040EA0120686090
:1008E00011E0FFE720F001002860FFF7B7FD804628
:1008F00006E000BFFFF7B2FDA0EB08000228DAD83F
:1009000028688007F6D42078C00740D0082E18D079
:100910000C2E01D1032F14D06068B0F5803F17D0A2
:10092000B0F5A02F286817D020F480302860286800
:1009300020F4802028606068E0B1FFF78FFD8046DA
:1009400014E02868800322D56068002878D01EE073
:10095000286840F48030EDE740F480202860F7E715
:10096000FFF77CFDA0EB08006428A4D8286880036A
:10097000F6D50CE0FFF772FD804605E0FFF76EFD4F
:10098000A0EB0800642896D828688003F6D4207865
:1009900080073BD5042E11D00C2E01D1022F0DD093
:1009A000E06801E03EE19FE0002828681ED040F4A6
:1009B00080702860FFF752FD07460CE0286840056C
:1009C0000CD5E0680028C1D008E000BFFFF746FD65
:1009D000C01B022893D828684005F7D56868217C99
:1009E00020F0F85040EA016068600FE020F4807069
:1009F0002860FFF733FD074605E000BFFFF72EFD37
:100A0000C01B022870D828684005F7D4207800075A
:100A100029D560690028D5F8940012D040F0010073
:100A2000C5F89400FFF71AFD074604E0FFF716FD2E
:100A3000C01B022858D8D5F894008007F6D512E0DC
:100A400029E120F00100C5F89400FFF707FD0746F3
:100A500005E000BFFFF702FDC01B022844D8D5F80F
:100A600094008007F6D42078400768D5A86D002749
:100A7000C00008D4A86D40F08050A865A86D01277B
:100A800000F08050009053480168C90512D40168F5
:100A9000814641F480710160FFF7E0FC804605E08B
:100AA000FFF7DCFCA0EB080002281DD8D9F80000F5
:100AB000C005F5D5A068012817D00528D5F8900005
:100AC00018D020F00100C5F89000D5F8900020F073
:100AD000040000BFC5F89000A06841F28839D0B189
:100AE000FFF7BCFC804611E06BE0D5F8900040F0C9
:100AF0000100EFE740F00400C5F89000F5E700BF03
:100B0000FFF7ACFCA0EB080149455AD8D5F8900096
:100B10008007F5D50EE0FFF7A1FC804606E000BF98
:100B2000FFF79CFCA0EB080149457AD8D5F8900066
:100B30008007F5D41FB1A86D20F08050A865A06A89
:100B4000F0B30C2E75D00228286820F08070286041
:100B500004D0286810F0205F51D054E0FFF77EFCED
:100B6000064604E0FFF77AFC801B022859D8286863
:100B70008001F7D4D4E90B016FF00F0202EB0111F1
:100B80000843A18F5204490802EB4151626B41EACC
:100B90000221084394F840104FF07E42490802EBCE
:100BA00041610843A16B090940EA4140E9680A4AEA
:100BB00011400843E860286840F0807028600DE02C
:100BC0006BE02EE0001002403C0F00080C000020FB
:100BD00000000020007000408C809DF9E86840F023
:100BE0008070E860FFF73AFC044604E0FFF736FC4B
:100BF000001B022815D828688001F7D54DE0E86869
:100C000020F00300E860E86825490840E860FFF745
:100C100025FC044609E000BFFFF720FC001B02286A
:100C200003D90320BDE8F88303E028688001F3D4EA
:100C300033E00128F6D0E868E26A00F0030191424F
:100C400029D1216B00F0700209011039914222D1A3
:100C5000626B00F4FE41B1EB022F1CD1A26B00F4D9
:100C60000031072A01D0012200E00022914212D176
:100C7000A18F00F4C00249084905A1F50011914275
:100C800009D194F8401000F0C06049084906A1F16C
:100C90000071814201D00120C4E70020C2E70000BA
:100CA000FFFFEEFE10B5401EB0F1807F01D30120A2
:100CB00010BD4FF0E02460610F21601700F009F9CA
:100CC0000020A06107202061002010BDFEE7000089
:100CD00030B587B014216846FFF779FA2C48C16C0B
:100CE00041F00401C164C16C01F004010591C16CC3
:100CF00041F08001C164C16C01F080010591C16CBB
:100D000041F01001C164C16C01F010010591C16C8A
:100D100041F00801C164C06C1E4D00F008004FF4A2
:100D200060740590012221462846FFF791FB4FF49D
:100D30000050009018480190022002906946174820
:100D4000FFF79AFA009401240020CDE90240694699
:100D500001942846FFF790FA4FF4E06000901048A5
:100D6000CDE9010469460F48FFF786FA0022062103
:100D70001720FFF7D7FB1720FFF7C6FB002206213D
:100D80002820FFF7CFFB2820FFF7BEFB07B030BDC0
:100D90000010024000100048000011100008004838
:100DA00000002110000C0048FEE77047704700006B
:100DB000F8B51C4D06460024A86DC00002D5FFF70B
:100DC00017FC0DE0A86D40F08050A865A86D00F0FC
:100DD00080500090FFF70CFCA96D21F08051A965AF
:100DE000B0F5007F04D0802E07D94FF003040AE04D
:100DF000802E08D9A02E01D804E001D1022402E0FF
:100E0000702E00D101240848016821F00701214318
:100E10000160006800F00700A04201D00120F8BD89
:100E20000020F8BD00100240002002407047FFF78C
:100E30001BBB10B596B044216846FFF7C8F91421D2
:100E400011A8FFF7C4F901210804CDE90010022020
:100E500003240A90CDE90B4114210D910721CDE91E
:100E60000E1010906846FFF7ADFC0F20CDE911047D
:100E70000020139014901590042111A8FFF7C0FBD7
:100E80004FF40070FFF780FB16B010BD0D480168ED
:100E900041F4700101600C48016841F001010160FA
:100EA000002181600268094B1A4002608214C2600E
:100EB000026822F48022026081610249C003803905
:100EC0000860704788ED00E000100240FFFFF6EA7E
:100ED000FEE70907090E002804DB00F1E02080F896
:100EE0000014704700F00F0000F1E02080F8141D9E
:100EF000704702E008C8121F08C1002AFAD17047E3
:100F00007047002001E001C1121F002AFBD1704789
:100F1000FFF7B2FAFFF78DFFFFF7DAFE064E4FF448
:100F20007A744FF400752046FFF786F9294630465B
:100F3000FFF787FAF7E70000001000480000000004
:100F4000000000000102030406070809A086010052
:100F5000400D0300801A060000350C0040420F00CF
:100F600080841E0000093D0000127A000024F40075
:100F700000366E010048E801006CDC029C0F00089E
:100F80000000002010000000F20E0008AC0F000866
:100F90001000002000040000020F000810000000F4
:0C0FA000010000000000000000093D00FE
:040000050800018965
:00000001FF
